:020000040800F2
:1000000000200020C50100080502000825020008A4
:1000100000000000000000000000000000000000E0
:1000200000000000000000000000000005020008C1
:1000300000000000000000000502000805020008A2
:100040000502000805020008050200080502000874
:100050000502000805020008050200080502000864
:100060000000000005020008050200080502000863
:100070000502000805020008050200080502000844
:100080000502000805020008050200080000000043
:100090000502000805020008050200080502000824
:1000A0000502000805020008050200080502000814
:0800B00005020008050200082A
:1000B80000F0A7F8FEDE000000F0ADF8044600F0FE
:1000C800A6F836480178002901D0002501E001256D
:1000D8000570E00701D100F09CF8002D59D0314A95
:1000E800314B136010684007FCD5D0682F49014098
:1000F800481CD060D06A01210843D062052004075B
:10010800606A40250543B020854365620320850465
:100118002668AE43CD04751925600F252D02666A41
:10012800AE43FF3333436362030525689D434B05A4
:10013800EB1823604B04946B1C4394631C4A1D4BBF
:10014800D3600023536093600D24146053601A4CED
:100158000CE0AE070ED46E070ED42E070ED4AD06F3
:1001680004D52578D6693606FCD52571D569EE07FC
:10017800EFD004E0184602E0084600E002201162D1
:10018800022111620421116208211162FFF790FF18
:10019800FEDE034800F038F8FEDEC046000000200E
:1001A8007C02000800100240010300000CC0FFFFA1
:1001B80000440040830600002444004000F01FF87B
:1001C80009480A4901E0002204C18142FBD30848DA
:1001D8000849814204D2084A08CA08C18142FBD3AF
:1001E800FFF76AFFFEDEC046040000200000002082
:1001F800000000200000002094020008FEE770477D
:10020800FEE7FFF7FDFFFEDEFFF7FBFFFEDE72B63F
:10021800704762B67047EFF310807047704604214C
:10022800084202D1EFF3088002E0EFF30980FFE70C
:02023800FEE7DF
:10023C0063616C6C656420604F7074696F6E3A3AE0
:10024C00756E77726170282960206F6E2061206056
:10025C004E6F6E65602076616C75657372632F6C82
:10026C006962636F72652F6F7074696F6E2E727333
:10027C003C0200082B00000067020008150000007B
:08028C006301000015000000F1
:04000005080001C529
:00000001FF
