:020000040800F2
:10000000000800201905000859050008A110000883
:1000100000000000000000000000000000000000E0
:10002000000000000000000000000000590500086A
:1000300000000000000000005905000859050008F4
:100040005905000859050008590500085905000818
:100050005905000859050008590500085905000808
:10006000000000005905000859050008590500085E
:1000700059050008590500085905000859050008E8
:10008000590500085905000859050008000000003E
:1000900059050008590500085905000859050008C8
:1000A00059050008590500085905000859050008B8
:0800B00059050008590500087C
:1000B8008EB003A908702B2002900C4801900C48C0
:1000C8000D900C910B480B9001A80A900220099002
:1000D8000AA90891079008490691059007480490D5
:1000E80004A8074900F006FCFEDEC046B010000870
:1000F800150200089502000878110008E0100008B1
:100108000811000800F044FF044600F03DFF37489E
:100118000178002901D0002501E001250570E007DC
:1001280001D100F033FF002D5BD0324A324B13600F
:1001380010684007FCD5D06830490140481CD060A1
:10014800D06A01210843D06205200407606A40256F
:100158000543B02085436562032085042668AE43C5
:10016800CD04751925600F252D02666AAE43FF334D
:1001780033436362030525689D434B05EB182360F1
:100188004B04946B1C4394631D4A1E4BD36000239D
:10019800536093600D24146053601B4C0DE0AE0750
:1001A80011D46E070DD42E070FD4AD0605D524251E
:1001B800555DD669360600D52570D569EE07EED0AF
:1001C80004E0084602E0184600E00220116202211D
:1001D80011620421116208211162516AFFF768FF58
:1001E800FEDE034800F0FCFBFEDEC04600000020F7
:1001F8003813000800100240010300000CC0FFFF84
:1002080000440040830600002844004010B584B034
:100218000C460078401E03280CD8C0467844007964
:1002280040008744010C1218A069E169CB681549A0
:10023800052215E0A069E169CB68134903E0A069CC
:10024800E169CB680E4907220AE0A069E169CB6839
:100258000A49062204E0A069E169CB6806490B2235
:10026800984701A908720020487201940290084634
:1002780000F04AFE04B010BD311100082B1100082F
:10028800241100081F1100081811000880B50B463A
:1002980006C8184600F0C2FB80BD0000F0B58DB05E
:1002A8000C4607688869C969CB6833490C229847A6
:1002B800012500285DD1B868002817D000902F4884
:1002C800029068460190A069E16901220C9201AB95
:1002D8000B930A922A4A099202220892294A079203
:1002E80007AA00F0EDFC002826D042E03E687868B6
:1002F800C16830468847244A4A402449414011434E
:10030800002918D100962248029068460190A069F9
:10031800E16901220C9201AB0B930A92184A0992E7
:1003280002220892174A079207AA00F0C9FC00287F
:1003380001D068461DE068461648069039461831CF
:1003480005910490384614300390134802900C37F6
:100358000197A069E16903220C9201AB0B930A9201
:100368000E4B099308920E4A079207AA00F0A8FCC0
:10037800054628460DB0F0BDEC130008E10E000854
:10038800C8130008F8130008D99410116497B070C6
:10039800010F00089D050008B90C0008CC120008E0
:1003A800081400088CB0019000F0EEFD03200890BE
:1003B8000420079010480690012406A9204600F062
:1003C800DFFD411C15D002900C48049001A8039051
:1003D80002A805900B9403A80A900994084808906D
:1003E800022007900748069005A8074906AA00F0CA
:1003F80067FC00F0C7FDFEE764110008A5020008CD
:10040800C81300083C1100084C110008F0B585B06D
:10041800002A1DD014460D46064602AB07C3052028
:1004280002A900F0ADFD0021002814D001918442FA
:1004380010D3074602960490201A2D18039505201C
:1004480002A900F09DFD00283C46F0D1019902E088
:10045800002100E00121084605B0F0BD704780B5D5
:1004680000680068FFF7D2FF80BD10B582B0006851
:10047800002201927F2903D801AA117001222FE0DE
:10048800CA0A0AD13F220A40803201AB5A70490594
:10049800C90EC0311970022222E00A0C0ED13F2287
:1004A8000A40803201AB9A700A05920E80325A7067
:1004B8000904090FE0311970032211E03F220A40B4
:1004C800803201ABDA708A0CF02414431C700A05E0
:1004D800920E80329A708903890E803159700422F5
:1004E800006801A9FFF792FF02B010BDB0B588B04F
:1004F8000068019002AA104638C938C038C938C007
:1005080001A8024900F0DCFB08B0B0BD4C1100089E
:1005180000F01FF809480A4901E0002204C181429D
:10052800FBD308480849814204D2084A08CA08C1CE
:100538008142FBD3FFF7E6FDFEDEC0460400002043
:1005480000000020000000200000002028140008FF
:10055800FEE770478CB00346019200910A480B9061
:1005680069460A91099001A808900220079008A9F5
:10057800069105900549049103900548029002A848
:10058800194600F0B7F9FEDE9D050008781100084D
:1005980068110008F0B599B001910468D048844208
:1005A80058D30020C043029027252646069530469A
:1005B800CB4900F0F0FC01460590CA484843301882
:1005C8000490642100F0E7FC07A949190391029FF0
:1005D8007B00C9184500C44A525D0124E4430A550A
:1005E800C14A5419069D6478CC55633F4743049823
:1005F800C0194000BC4F3C5C039AD454059C381881
:10060800407848702D1FB94886422646CED8642CBB
:1006180023DBA0B2642100F0BEFC6321C94341433F
:10062800091989B24900B04A535CAD1E07AC63553D
:100638006319511849785970092811DD4000AA4AF0
:10064800135CA91E07AC635463181018407806930E
:1006580058700BE02725642CDBDA20460928EDDCEE
:10066800691E303007AA505450180690019B002785
:1006780012979F4811901120000413902720421AC6
:100688001868C107144602D02B211391541C0592F7
:100698004107C90F14AA117011A91791169213A92D
:1006A80015919968012914D1DD68A54211D900076F
:1006B80021D43020195C032900D101212C1B0325EA
:1006C80029400020002937D002292FD0002103918A
:1006D80034E015A819461C4600F028F9002802D075
:1006E800012019B0F0BDA069E169CB680699059AA7
:1006F800984719B0F0BD302001261E54586015A83F
:10070800194600F013F90028EAD1019B1846303049
:100718000078032800D006462C1B03252E40002E07
:1007280037D0022E2FD00020039034E06108621CDD
:10073800520803920C4601E0039404461890586846
:100748007F2803D818A9087001254AE0C10A0AD1F0
:100758003F210140803118AA51704005C00EC030B9
:10076800107002253DE0010C2AD13F210140803163
:1007780018AA91700105890E803151700004000F8C
:10078800E03010702DE06008611C490803910446B0
:1007980001E003943C46189758687F2803D818A9A5
:1007A8000870012571E0C10A4BD13F210140803119
:1007B80018AA51704005C00EC0301070022564E0C0
:1007C8003F210140803118AAD170810CF03111709D
:1007D8000105890E803191708003800E8030507041
:1007E800042500200490C7433E46761CA64209D241
:1007F8009869D969CB6818A92A469847019B0028A7
:10080800F3D06DE715A819461C4600F08FF80028AC
:1008180000D065E7A069E169CB680699059A984711
:10082800002800D05CE7039C7F1CA74219D20199DD
:100838008869C969CB6818A92A4698470028F3D05F
:100848004EE7010C10D13F210140803118AA917068
:100858000105890E803151700004000FE0301070DE
:1008680013E0049819B0F0BD3F210140803118AA67
:10087800D170810CF03111700105890E80319170B1
:100888008003800E80305070042500200490C643F9
:1008980037467F1CA74209D29869D969CB6818A93D
:1008A8002A469847019B0028F3D019E79869D96927
:1008B800CB680699059A9847002800D010E7039C52
:1008C800761CA64209D201998869C969CB6818A91A
:1008D8002A4698470028F3D002E7049819B0F0BDDB
:1008E80010270000F0D8FFFF02120008FFE0F5050E
:1008F8006811000888B01CC90968079103A91DC1BF
:10090800034802900348019001A8FFF74BFDFEDE63
:10091800C01100086811000870470000014802492A
:100928007047C0460E3A0F76DFBC902D70B582B086
:100938000D4604460068026811200004824240D037
:10094800A869E969002301937F2A03D801AB1A70CB
:1009580001222EE0D30A0AD13F231340803301AE8F
:1009680073705205D20EC0323270022221E0130C8D
:100978000ED13F231340803301AEB37013059B0E95
:10098800803373701204120FE0323270032210E0C9
:100998003F231340803301AEF370930CF033337070
:1009A80013059B0E8033B3709203920E80327270DF
:1009B8000422CB6801A99847002802D0012002B080
:1009C80070BD60680078002807D0A869E969CB681D
:1009D800A26806CA984702B070BD002002B070BD78
:1009E8008CB018C808380546083526CD40690794E4
:1009F800069300230593084C049403930293012360
:100A0800019306AB00930B9008A826C0684608A976
:100A1800FFF770FFFEDEC04668110008F0B589B028
:100A280004460069A568012D079402D1002803D166
:100A380077E0002800D1C6E0002A65D0009503922F
:100A48008B181120000401906069C64300200D46F0
:100A580002910C4601460493681C2A7852B2D7B218
:100A6800002A03DB0546761C46D151E01F22069278
:100A7800984206D068783F2202400592A81C054695
:100A880002E0002205921D46069A3A407B09072B90
:100A980009D30692049B9D4208D028783F2303403F
:100AA800681C054605E09301059A12E000221D46E0
:100AB8001346059A92019A183B090F2B07D3049BFA
:100AC8009D420CD028783F2707406D1C09E0069B03
:100AD8001B03D7180546049B761C0DD118E0002788
:100AE80005469001069A5207D20A8018C71901983C
:100AF800874206D0761C0BD0081B4119AB422C4606
:100B0800AAD1079C039A08E00022002D09D15AE0D7
:100B180001988742079C039A39D10299009D002DBC
:100B280051D00020002A0AD016460D462B789B0982
:100B3800022B00D1401C761E6D1C002EF6D1101A17
:100B4800E768B8423FD20020002A06460BD00026AC
:100B580013460C462578AD09022D00D1761C5B1E84
:100B6800641C002BF6D10291B31A3025079C645DF2
:100B7800032C064600D02646DD1903273E40002EEA
:100B880027D0022E079B28D0002106912AE00029B1
:100B98000E4602990CD096420AD00020964203468F
:100BA80008D28D573F20C34300209D42034601DBF6
:100BB80030460B46002B00D00246002B009DAED0DD
:100BC8001946002DADD1A069E369DB68984709B0E3
:100BD800F0BD06950546079B04E069086C1C64088F
:100BE80006940D46089058687F28039203D808A9F0
:100BF800087001272DE0C10A0AD13F210140803148
:100C080008AA51704005C00EC0301070022720E0BD
:100C1800010C0DD13F210140803108AA91700105D6
:100C2800890E803151700004000FE030107010E020
:100C38003F210140803108AAD170810CF031117038
:100C48000105890E803191708003800E80305070CC
:100C5800042700200590C6433446641CAC4209D2E0
:100C680007998869C969CB6808A93A46984700284E
:100C7800F3D008E0079CA069E169CB680299039A60
:100C88009847002802D0012009B0F0BD069D761CC7
:100C9800AE420AD2A069E169CB6808A93A469847EA
:100CA8000028F4D0012009B0F0BD059809B0F0BDC6
:100CB80080B50B4606C81846FFF7B0FE80BD000099
:100CC800F0B595B013695769302408AE032535553A
:100CD8003546202405940994002408941397129308
:100CE8000EAE0BC60C940A94FE0098191190116868
:100CF80050689768C000002F0691079000D1A4E0C3
:100D080030350495D068242646433D461C350120DD
:100D18000290C0430390002E00D1B0E00798A04293
:100D280000D1BEE006980159001942680F98C368BF
:100D38000E989847002800D0B0E0B8680990059848
:100D4800385C04990870F8680890BB690020012B8A
:100D580014D0032B024625D0022B21D1109B1199C8
:100D68008B4202461ED01946083110915968544AE0
:100D78009142024616D11968096812E02968139A47
:100D8800914200D390E0C900129B0191591849681B
:100D98004B4A9142024605D101995958096800E029
:100DA8002968029A0B910A923969012912D00329FC
:100DB8000FD0022920D1109A11998A4209D01146E0
:100DC8000831109151683E4B994219D11068016859
:100DD80015E015E0039989006958139A914263D286
:100DE800C900129B019159184968354A914207D1A7
:100DF80001981858016802E00398800029580120DA
:100E08000D910C90386801280CD10398800028189F
:100E18000F21C9434158139A914249D2C8001299E7
:100E2800081806E010981199884245D00146083103
:100E38001091011D24370A68006808A99047243ECC
:100E480024350834002829D165E707460C461D4695
:100E5800002E17D0002F24D00F98C36806CC0E9808
:100E6800083C9847002819D12946083505C908A91A
:100E78009047083E083F08340028E9D00EE006985D
:100E8800041900E0069807994018844209D00F9881
:100E9800C36806CC0E989847002802D0012015B0E8
:100EA800F0BD002015B0F0BD0648FFF753FBFEDE8D
:100EB8000648FFF74FFBFEDE0348FFF791FDFEDE15
:100EC800D90E0008501300083813000860130008F2
:100ED80080B5FFF75FFB80BDF0B587B08B69C96946
:100EE800006801AA1446E0C8E0C4E0C8E0C4184697
:100EF800FFF7E6FE07B0F0BD80B50B46006806C8F0
:100F08001846FFF78BFD80BDB0B50446057A4068EA
:100F1800002829D0002D01D0012524E021680A7875
:100F2800520709D58869C969CB68124901252A463B
:100F38009847002817D1606801280CD1607A0028EA
:100F480009D021688869C969CB680B4901252A46F7
:100F58009847002807D121688869C969CB6807497B
:100F68000122984705462572002D00D00125284604
:100F7800B0BDC04626140008251400082714000830
:100F8800ABBE704700BE704772B6704762B6704716
:100F9800EFF310807047F0B581B000293AD00446CD
:100FA8000020002C34D00D46202700293E46009012
:100FB80004D0284600F030F806460098002C04D0EB
:100FC800204600F029F807460098F11B1F291FD872
:100FD80002D1204601B0F0BD701CC01B4B1C1F265F
:100FE80033402246DA40711A31408C400021E30F29
:100FF8005200D218D3435B19DB171E462E40921BB2
:1010080064000C4301211940401EF0D1600008180B
:1010180001B0F0BDFEDEFEDE030C23D01023D84065
:10102800FF231B020022184223D008230021D840A6
:10103800F0238918034223D0EC3B0022D840031C3C
:1010480088180C221A4223D000220221CB40811892
:101058000122580882430220C01A031C524213403E
:10106800C81870470023D840FF231B0210221842DB
:10107800DBD100230821D840F02389180342DBD1B3
:1010880000230422D840031C88180C221A42DBD102
:1010980002220021DAE7C046EFF30880FFE7FEE707
:1010B00063616C6C65642060526573756C743A3A58
:1010C000756E77726170282960206F6E20616E20C6
:1010D00060457272602076616C75653A2000000090
:1010E0006811000800000000DB100008020000008A
:1010F0007372632F6C6962636F72652F72657375AB
:101100006C742E7273000000F010000815000000CF
:10111000F1030000050000004672616D696E674EC4
:101120006F6973654F76657272756E50617269741E
:10113000795F457874656E7369626C656811000843
:1011400000000000261400080100000065040008EB
:101150000400000004000000670400087304000895
:10116000F50400083A747400D01100082000000053
:10117000F011000812000000010000000000000053
:10118000200000000000000003000000000000003C
:101190000300000000000000030000000100000048
:1011A000010000002000000000000000030000001B
:1011B0000000000003000000000000000300000029
:1011C00021090008000000000100000025090008B6
:1011D000696E646578206F7574206F6620626F7524
:1011E0006E64733A20746865206C656E20697320A4
:1011F000206275742074686520696E646578206962
:101200007320303030313032303330343035303696
:1012100030373038303931303131313231333134A7
:10122000313531363137313831393230323132328D
:101230003233323432353236323732383239333073
:101240003331333233333334333533363337333862
:101250003339343034313432343334343435343651
:101260003437343834393530353135323533353437
:10127000353535363537353835393630363136321D
:101280003633363436353636363736383639373003
:1012900037313732373337343735373637373738F2
:1012A00037393830383138323833383438353836E1
:1012B00038373838383939303931393239333934C7
:1012C00039353936393739383939000001000000ED
:1012D00000000000200000000000000003000000EB
:1012E00000000000030000000000000003000000F8
:1012F00001000000010000002000000000000000CC
:1013000003000000000000000300000000000000D7
:1013100003000000010000000200000020000000A7
:1013200000000000030000000000000003000000B7
:101330000000000003000000861300082B000000DE
:10134000B113000815000000630100001500000043
:101350007013000816000000560400001100000081
:1013600070130008160000004A0400002800000066
:101370007372632F6C6962636F72652F666D742F71
:101380006D6F642E727363616C6C656420604F7066
:1013900074696F6E3A3A756E7772617028296020B1
:1013A0006F6E206120604E6F6E65602076616C7597
:1013B000657372632F6C6962636F72652F6F7074EF
:1013C000696F6E2E727300000100000000000000C3
:1013D00020000000000000000300000000000000EA
:1013E00003000000000000000300000070616E694F
:1013F000636B656420617420211400080100000003
:10140000221400080300000068110008000000001A
:101410002014000801000000201400080100000052
:081420003A27272C202C0A2991
:0400000508000519D1
:00000001FF
